{
  "abi": [
    {
      "inputs": [],
      "name": "PRBMathSD59x18__AbsInputTooSmall",
      "type": "error"
    },
    {
      "inputs": [
        {
          "internalType": "int256",
          "name": "x",
          "type": "int256"
        }
      ],
      "name": "PRBMathSD59x18__Exp2InputTooBig",
      "type": "error"
    },
    {
      "inputs": [
        {
          "internalType": "int256",
          "name": "x",
          "type": "int256"
        }
      ],
      "name": "PRBMathSD59x18__ExpInputTooBig",
      "type": "error"
    },
    {
      "inputs": [
        {
          "internalType": "int256",
          "name": "x",
          "type": "int256"
        }
      ],
      "name": "PRBMathSD59x18__LogInputTooSmall",
      "type": "error"
    },
    {
      "inputs": [],
      "name": "PRBMathSD59x18__MulInputTooSmall",
      "type": "error"
    },
    {
      "inputs": [
        {
          "internalType": "uint256",
          "name": "rAbs",
          "type": "uint256"
        }
      ],
      "name": "PRBMathSD59x18__MulOverflow",
      "type": "error"
    },
    {
      "inputs": [
        {
          "internalType": "int256",
          "name": "x",
          "type": "int256"
        }
      ],
      "name": "PRBMathSD59x18__SqrtNegativeInput",
      "type": "error"
    },
    {
      "inputs": [
        {
          "internalType": "int256",
          "name": "x",
          "type": "int256"
        }
      ],
      "name": "PRBMathSD59x18__SqrtOverflow",
      "type": "error"
    },
    {
      "inputs": [
        {
          "internalType": "uint256",
          "name": "prod1",
          "type": "uint256"
        }
      ],
      "name": "PRBMath__MulDivFixedPointOverflow",
      "type": "error"
    },
    {
      "inputs": [
        {
          "internalType": "int256",
          "name": "re",
          "type": "int256"
        },
        {
          "internalType": "int256",
          "name": "im",
          "type": "int256"
        },
        {
          "internalType": "int256",
          "name": "re1",
          "type": "int256"
        },
        {
          "internalType": "int256",
          "name": "im1",
          "type": "int256"
        }
      ],
      "name": "add",
      "outputs": [
        {
          "internalType": "int256",
          "name": "",
          "type": "int256"
        },
        {
          "internalType": "int256",
          "name": "",
          "type": "int256"
        }
      ],
      "stateMutability": "pure",
      "type": "function"
    },
    {
      "inputs": [
        {
          "internalType": "int256",
          "name": "x",
          "type": "int256"
        }
      ],
      "name": "atan1to1",
      "outputs": [
        {
          "internalType": "int256",
          "name": "",
          "type": "int256"
        }
      ],
      "stateMutability": "pure",
      "type": "function"
    },
    {
      "inputs": [
        {
          "internalType": "int256",
          "name": "y",
          "type": "int256"
        },
        {
          "internalType": "int256",
          "name": "x",
          "type": "int256"
        }
      ],
      "name": "atan2",
      "outputs": [
        {
          "internalType": "int256",
          "name": "T",
          "type": "int256"
        }
      ],
      "stateMutability": "pure",
      "type": "function"
    },
    {
      "inputs": [
        {
          "internalType": "int256",
          "name": "re",
          "type": "int256"
        },
        {
          "internalType": "int256",
          "name": "im",
          "type": "int256"
        }
      ],
      "name": "complexEXP",
      "outputs": [
        {
          "internalType": "int256",
          "name": "",
          "type": "int256"
        },
        {
          "internalType": "int256",
          "name": "",
          "type": "int256"
        }
      ],
      "stateMutability": "pure",
      "type": "function"
    },
    {
      "inputs": [
        {
          "internalType": "int256",
          "name": "re",
          "type": "int256"
        },
        {
          "internalType": "int256",
          "name": "im",
          "type": "int256"
        }
      ],
      "name": "complexLN",
      "outputs": [
        {
          "internalType": "int256",
          "name": "",
          "type": "int256"
        },
        {
          "internalType": "int256",
          "name": "",
          "type": "int256"
        }
      ],
      "stateMutability": "pure",
      "type": "function"
    },
    {
      "inputs": [
        {
          "internalType": "int256",
          "name": "re",
          "type": "int256"
        },
        {
          "internalType": "int256",
          "name": "im",
          "type": "int256"
        },
        {
          "internalType": "int256",
          "name": "n",
          "type": "int256"
        }
      ],
      "name": "complexPOW",
      "outputs": [
        {
          "internalType": "int256",
          "name": "",
          "type": "int256"
        },
        {
          "internalType": "int256",
          "name": "",
          "type": "int256"
        }
      ],
      "stateMutability": "pure",
      "type": "function"
    },
    {
      "inputs": [
        {
          "internalType": "int256",
          "name": "re",
          "type": "int256"
        },
        {
          "internalType": "int256",
          "name": "im",
          "type": "int256"
        }
      ],
      "name": "complexSQRT",
      "outputs": [
        {
          "internalType": "int256",
          "name": "",
          "type": "int256"
        },
        {
          "internalType": "int256",
          "name": "",
          "type": "int256"
        }
      ],
      "stateMutability": "pure",
      "type": "function"
    },
    {
      "inputs": [
        {
          "internalType": "int256",
          "name": "re",
          "type": "int256"
        },
        {
          "internalType": "int256",
          "name": "im",
          "type": "int256"
        },
        {
          "internalType": "int256",
          "name": "re1",
          "type": "int256"
        },
        {
          "internalType": "int256",
          "name": "im1",
          "type": "int256"
        }
      ],
      "name": "div",
      "outputs": [
        {
          "internalType": "int256",
          "name": "",
          "type": "int256"
        },
        {
          "internalType": "int256",
          "name": "",
          "type": "int256"
        }
      ],
      "stateMutability": "pure",
      "type": "function"
    },
    {
      "inputs": [
        {
          "internalType": "int256",
          "name": "r",
          "type": "int256"
        },
        {
          "internalType": "int256",
          "name": "T",
          "type": "int256"
        }
      ],
      "name": "fromPolar",
      "outputs": [
        {
          "internalType": "int256",
          "name": "re",
          "type": "int256"
        },
        {
          "internalType": "int256",
          "name": "im",
          "type": "int256"
        }
      ],
      "stateMutability": "pure",
      "type": "function"
    },
    {
      "inputs": [
        {
          "internalType": "int256",
          "name": "re",
          "type": "int256"
        },
        {
          "internalType": "int256",
          "name": "im",
          "type": "int256"
        },
        {
          "internalType": "int256",
          "name": "re1",
          "type": "int256"
        },
        {
          "internalType": "int256",
          "name": "im1",
          "type": "int256"
        }
      ],
      "name": "mul",
      "outputs": [
        {
          "internalType": "int256",
          "name": "",
          "type": "int256"
        },
        {
          "internalType": "int256",
          "name": "",
          "type": "int256"
        }
      ],
      "stateMutability": "pure",
      "type": "function"
    },
    {
      "inputs": [
        {
          "internalType": "int256",
          "name": "y",
          "type": "int256"
        },
        {
          "internalType": "int256",
          "name": "x",
          "type": "int256"
        }
      ],
      "name": "p_atan2",
      "outputs": [
        {
          "internalType": "int256",
          "name": "T",
          "type": "int256"
        }
      ],
      "stateMutability": "pure",
      "type": "function"
    },
    {
      "inputs": [
        {
          "internalType": "int256",
          "name": "a",
          "type": "int256"
        },
        {
          "internalType": "int256",
          "name": "b",
          "type": "int256"
        }
      ],
      "name": "r2",
      "outputs": [
        {
          "internalType": "int256",
          "name": "",
          "type": "int256"
        }
      ],
      "stateMutability": "pure",
      "type": "function"
    },
    {
      "inputs": [
        {
          "internalType": "int256",
          "name": "re",
          "type": "int256"
        },
        {
          "internalType": "int256",
          "name": "im",
          "type": "int256"
        },
        {
          "internalType": "int256",
          "name": "re1",
          "type": "int256"
        },
        {
          "internalType": "int256",
          "name": "im1",
          "type": "int256"
        }
      ],
      "name": "sub",
      "outputs": [
        {
          "internalType": "int256",
          "name": "",
          "type": "int256"
        },
        {
          "internalType": "int256",
          "name": "",
          "type": "int256"
        }
      ],
      "stateMutability": "pure",
      "type": "function"
    },
    {
      "inputs": [
        {
          "internalType": "int256",
          "name": "re",
          "type": "int256"
        },
        {
          "internalType": "int256",
          "name": "im",
          "type": "int256"
        }
      ],
      "name": "toPolar",
      "outputs": [
        {
          "internalType": "int256",
          "name": "",
          "type": "int256"
        },
        {
          "internalType": "int256",
          "name": "",
          "type": "int256"
        }
      ],
      "stateMutability": "pure",
      "type": "function"
    }
  ],
  "bytecode": {
    "object": "0x6120cb61003a600b82828239805160001a60731461002d57634e487b7160e01b600052600060045260246000fd5b30600052607381538281f3fe73000000000000000000000000000000000000000030146080604052600436106100f35760003560e01c80636271f50e11610096578063a5bb77e811610070578063a5bb77e8146101de578063b4ce66db146101f1578063d2ce9ea214610204578063d4af132e1461021757600080fd5b80636271f50e146101a55780638d2704e9146101b8578063a31f4651146101cb57600080fd5b80632b6a2dbe116100d25780632b6a2dbe146101595780633dfcdd0a1461016c57806350f175441461017f5780635b7bd4fd1461019257600080fd5b80626d284a146100f8578063039492b31461012557806303b8eb0014610146575b600080fd5b61010b610106366004611922565b61022a565b604080519283526020830191909152015b60405180910390f35b610138610133366004611954565b61024d565b60405190815260200161011c565b61010b610154366004611976565b610395565b61010b610167366004611922565b61043c565b61010b61017a366004611954565b6104c2565b61010b61018d366004611954565b61058f565b61010b6101a0366004611922565b6105b6565b61010b6101b3366004611922565b610669565b61010b6101c6366004611954565b610682565b6101386101d93660046119a2565b6106a8565b6101386101ec366004611954565b610753565b6101386101ff366004611954565b6107a5565b61010b610212366004611954565b610933565b61010b610225366004611954565b610985565b60008061023784876119d1565b955061024383866119d1565b9596945050505050565b6000670ae64b77e88c928581610264826003611a10565b9050600061027186610a53565b61027f906305f5e100611a95565b9050600085126102fe5760006102958287611a95565b61029f83886119d1565b6102b190670de0b6b3a7640000611a10565b6102bb9190611aec565b9050670de0b6b3a76400006102d08286611a10565b6102e286670de0b6b3a7640000611a10565b6102ec91906119d1565b6102f69190611aec565b94505061036f565b600061030a86836119d1565b6103148388611a95565b61032690670de0b6b3a7640000611a10565b6103309190611aec565b9050670de0b6b3a76400006103458286611a10565b61035785670de0b6b3a7640000611a10565b61036191906119d1565b61036b9190611aec565b9450505b600086121561038b5761038184611b28565b935050505061038f565b5050505b92915050565b6000806000806103a58787610933565b909250905060006103b68387610a8e565b90506000670de0b6b3a76400006103cd8489611a10565b6103d79190611aec565b9050670de0b6b3a76400006103eb82610ad0565b6103f59084611a10565b6103ff9190611aec565b9850670de0b6b3a764000061041382610ae1565b61041d9084611a10565b6104279190611aec565b9750888895509550505050505b935093915050565b6000808061044a8588611a10565b905060006104588588611a10565b905060006104668789611a10565b90506000610474878b611a10565b905061048083856119d1565b995061048c8183611a95565b98506104a0670de0b6b3a76400008b611aec565b99506104b4670de0b6b3a76400008a611aec565b999a98505050505050505050565b600080600083131561052357670de0b6b3a76400006104e084610ad0565b6104ea9086611a10565b6104f49190611aec565b9150670de0b6b3a764000061050884610ae1565b6105129086611a10565b61051c9190611aec565b9050610588565b670de0b6b3a764000061053584610ad0565b61053f9086611a10565b6105499190611aec565b9150670de0b6b3a764000061056861056385600019611a10565b610ae1565b6105729086611a10565b61057b90611b28565b6105859190611aec565b90505b9250929050565b600080600061059e8585610933565b90955090506105ac85610bab565b9590945092505050565b600080806105c48487611a10565b6105ce8689611a10565b6105d89190611a95565b905060006105e7600286611c6a565b6105f2600288611c6a565b6105fc9190611a95565b9050600061060a868a611a10565b610614888a611a10565b61061e91906119d1565b90508161063384670de0b6b3a7640000611a10565b61063d9190611aec565b98508161065282670de0b6b3a7640000611a10565b61065c9190611aec565b9899975050505050505050565b6000806106768487611a95565b95506102438386611a95565b600080600061069085610bdd565b905061069c81856104c2565b90969095509350505050565b600080670de0b6b3a7640000806106c68566eb8b7fac9bc000611a10565b6106d09190611aec565b6106e290670365595a8089c000611a95565b670de0b6b3a76400006106f581876119d1565b6106ff9087611a10565b6107099190611aec565b6107139190611a10565b61071d9190611aec565b670de0b6b3a764000061073885670ae4e15744ae8000611a10565b6107429190611aec565b61074c91906119d1565b9392505050565b6000670de0b6b3a76400006107688480611a10565b6107729190611aec565b9250670de0b6b3a76400006107878380611a10565b6107919190611aec565b915061074c6107a08385611a95565b610c52565b6000670ae64b77e88c9285816107bc826003611a10565b905060006107c986610a53565b6107d7906305f5e100611a95565b90506000851261088a5760006107ed8287611a95565b6107f783886119d1565b61080990670de0b6b3a7640000611a10565b6108139190611aec565b905083670de0b6b3a764000061083183670d9fb2f2e0004000611a10565b61083b9190611aec565b6f29c30f1029939b146664242d97d9f64960361b61085a600385611c6a565b61086c906702b965cf5968c000611a10565b6108769190611aec565b61088091906119d1565b6102f69190611a95565b600061089686836119d1565b6108a08388611a95565b6108b290670de0b6b3a7640000611a10565b6108bc9190611aec565b905082670de0b6b3a76400006108da83670d9fb2f2e0004000611a10565b6108e49190611aec565b6f29c30f1029939b146664242d97d9f64960361b610903600385611c6a565b610915906702b965cf5968c000611a10565b61091f9190611aec565b61092991906119d1565b61036b9190611a95565b60008060006109428585610753565b9050600081131561096657600061095985876107a5565b9193509091506105889050565b600061097285876107a5565b610959906809c2007651b2500000611a95565b600080826000036109df5760008413156109a9576109a284610c52565b9350610a4b565b6109b284610c52565b6109bb90611b28565b925060008313156109cf5760009350610a4b565b6109d883611b28565b9250610a4b565b83600003610a1b576109ff60026109f585610a53565b6107a09190611aec565b93506000841315610a1257839250610a4b565b6109d884611b28565b600080610a288686610933565b91509150610a43610a3883610c52565b61017a600284611aec565b909650945050505b509192909150565b6000600160ff1b8203610a7957604051631d0742e360e21b815260040160405180910390fd5b60008212610a87578161038f565b5060000390565b600082600003610ab6578115610aa5576000610aaf565b670de0b6b3a76400005b905061038f565b61074c610acb610ac585610cc8565b84610dad565b610e72565b600061038f6715cc96efd11924eb83015b6757325bbf446493ac9081900663400000000204600061ffff600483901c1660ff601484901c16631000000084161563200000008516151581610b265760ff92909203915b60006040518061044001604052806104048152602001611c92610404913960046002860102818101519192509063ffffffff602082901c8116908216818103890260101c600088610b7957818303610b7d565b8184015b90508715610b89576000035b637fffffff670de0b6b3a76400008202059d9c50505050505050505050505050565b60006714057b7ef767814f670de0b6b3a7640000610bc884610cc8565b0281610bd657610bd6611ad6565b0592915050565b600068023f2fa8f6da5b9d3119821215610bf957506000919050565b680736ea4425c11ac6318212610c2a576040516399bb754160e01b8152600481018390526024015b60405180910390fd5b6714057b7ef767814f820261074c670de0b6b3a76400006706f05b59d3b20000830105610e72565b600080821215610c785760405163608c83ff60e11b815260048101839052602401610c21565b7809392ee8e921d5d073aff322e62439fcf32d7f344649470f90821315610cb557604051632c482c3960e01b815260048101839052602401610c21565b61038f670de0b6b3a76400008302610f08565b6000808213610ced5760405163309fa7dd60e11b815260048101839052602401610c21565b6000670de0b6b3a76400008312610d0657506001610d20565b6000199050826ec097ce7bc90715b34b9f10000000000492505b6000610d35670de0b6b3a76400008505611081565b670de0b6b3a764000081029350905083811d670de0b6b3a763ffff198101610d5f57505002919050565b6706f05b59d3b200005b6000811315610da457670de0b6b3a7640000828002059150671bc16d674ec800008212610d9c579384019360019190911d905b60011d610d69565b50505002919050565b6000600160ff1b831480610dc45750600160ff1b82145b15610de257604051630d01a11b60e21b815260040160405180910390fd5b60008060008512610df35784610df8565b846000035b915060008412610e085783610e0d565b836000035b90506000610e1b8383611160565b90506001600160ff1b03811115610e485760405163bf79e8d960e01b815260048101829052602401610c21565b600019808713908613808218600114610e615782610e66565b826000035b98975050505050505050565b600080821215610ebf5768033dd1780914b9711419821215610e9657506000919050565b610ea282600003610e72565b6ec097ce7bc90715b34b9f100000000081610bd657610bd6611ad6565b680a688906bd8b0000008212610eeb5760405163e69458f960e01b815260048101839052602401610c21565b670de0b6b3a7640000604083901b0461074c81611226565b919050565b600081600003610f1a57506000919050565b50600181600160801b8110610f345760409190911b9060801c5b600160401b8110610f4a5760209190911b9060401c5b6401000000008110610f615760109190911b9060201c5b620100008110610f765760089190911b9060101c5b6101008110610f8a5760049190911b9060081c5b60108110610f9d5760029190911b9060041c5b60088110610fad57600182901b91505b6001828481610fbe57610fbe611ad6565b048301901c91506001828481610fd657610fd6611ad6565b048301901c91506001828481610fee57610fee611ad6565b048301901c9150600182848161100657611006611ad6565b048301901c9150600182848161101e5761101e611ad6565b048301901c9150600182848161103657611036611ad6565b048301901c9150600182848161104e5761104e611ad6565b048301901c9150600082848161106657611066611ad6565b049050808310156110775782611079565b805b949350505050565b6000600160801b82106110a157608091821c9161109e9082611c79565b90505b600160401b82106110bf57604091821c916110bc9082611c79565b90505b64010000000082106110de57602091821c916110db9082611c79565b90505b6201000082106110fb57601091821c916110f89082611c79565b90505b610100821061111757600891821c916111149082611c79565b90505b6010821061113257600491821c9161112f9082611c79565b90505b6004821061114d57600291821c9161114a9082611c79565b90505b60028210610f035761038f600182611c79565b60008080600019848609848602925082811083820303915050670de0b6b3a764000081106111a45760405163698d9a0160e11b815260048101829052602401610c21565b600080670de0b6b3a764000086880991506706f05b59d3b1ffff82119050826000036111e25780670de0b6b3a764000085040194505050505061038f565b620400008285030493909111909103600160ee1b02919091177faccb18165bd6fe31ae1cf318dc5b51eee0e1ba569b88cd74c1773b91fac106690201905092915050565b600160bf1b67800000000000000082161561124a5768016a09e667f3bcc9090260401c5b674000000000000000821615611269576801306fe0a31b7152df0260401c5b672000000000000000821615611288576801172b83c7d517adce0260401c5b6710000000000000008216156112a75768010b5586cf9890f62a0260401c5b6708000000000000008216156112c6576801059b0d31585743ae0260401c5b6704000000000000008216156112e557680102c9a3e778060ee70260401c5b6702000000000000008216156113045768010163da9fb33356d80260401c5b67010000000000000082161561132357680100b1afa5abcbed610260401c5b66800000000000008216156113415768010058c86da1c09ea20260401c5b664000000000000082161561135f576801002c605e2e8cec500260401c5b662000000000000082161561137d57680100162f3904051fa10260401c5b661000000000000082161561139b576801000b175effdc76ba0260401c5b66080000000000008216156113b957680100058ba01fb9f96d0260401c5b66040000000000008216156113d75768010002c5cc37da94920260401c5b66020000000000008216156113f5576801000162e525ee05470260401c5b66010000000000008216156114135768010000b17255775c040260401c5b65800000000000821615611430576801000058b91b5bc9ae0260401c5b6540000000000082161561144d57680100002c5c89d5ec6d0260401c5b6520000000000082161561146a5768010000162e43f4f8310260401c5b6510000000000082161561148757680100000b1721bcfc9a0260401c5b650800000000008216156114a45768010000058b90cf1e6e0260401c5b650400000000008216156114c1576801000002c5c863b73f0260401c5b650200000000008216156114de57680100000162e430e5a20260401c5b650100000000008216156114fb576801000000b1721835510260401c5b64800000000082161561151757680100000058b90c0b490260401c5b6440000000008216156115335768010000002c5c8601cc0260401c5b64200000000082161561154f576801000000162e42fff00260401c5b64100000000082161561156b5768010000000b17217fbb0260401c5b640800000000821615611587576801000000058b90bfce0260401c5b6404000000008216156115a357680100000002c5c85fe30260401c5b6402000000008216156115bf5768010000000162e42ff10260401c5b6401000000008216156115db57680100000000b17217f80260401c5b63800000008216156115f65768010000000058b90bfc0260401c5b6340000000821615611611576801000000002c5c85fe0260401c5b632000000082161561162c57680100000000162e42ff0260401c5b6310000000821615611647576801000000000b17217f0260401c5b630800000082161561166257680100000000058b90c00260401c5b630400000082161561167d5768010000000002c5c8600260401c5b6302000000821615611698576801000000000162e4300260401c5b63010000008216156116b35768010000000000b172180260401c5b628000008216156116cd576801000000000058b90c0260401c5b624000008216156116e757680100000000002c5c860260401c5b622000008216156117015768010000000000162e430260401c5b6210000082161561171b57680100000000000b17210260401c5b620800008216156117355768010000000000058b910260401c5b6204000082161561174f576801000000000002c5c80260401c5b6202000082161561176957680100000000000162e40260401c5b62010000821615611783576801000000000000b1720260401c5b61800082161561179c57680100000000000058b90260401c5b6140008216156117b55768010000000000002c5d0260401c5b6120008216156117ce576801000000000000162e0260401c5b6110008216156117e75768010000000000000b170260401c5b610800821615611800576801000000000000058c0260401c5b61040082161561181957680100000000000002c60260401c5b61020082161561183257680100000000000001630260401c5b61010082161561184b57680100000000000000b10260401c5b608082161561186357680100000000000000590260401c5b604082161561187b576801000000000000002c0260401c5b602082161561189357680100000000000000160260401c5b60108216156118ab576801000000000000000b0260401c5b60088216156118c357680100000000000000060260401c5b60048216156118db57680100000000000000030260401c5b60028216156118f357680100000000000000010260401c5b600182161561190b57680100000000000000010260401c5b670de0b6b3a76400000260409190911c60bf031c90565b6000806000806080858703121561193857600080fd5b5050823594602084013594506040840135936060013592509050565b6000806040838503121561196757600080fd5b50508035926020909101359150565b60008060006060848603121561198b57600080fd5b505081359360208301359350604090920135919050565b6000602082840312156119b457600080fd5b5035919050565b634e487b7160e01b600052601160045260246000fd5b60008083128015600160ff1b8501841216156119ef576119ef6119bb565b6001600160ff1b0384018313811615611a0a57611a0a6119bb565b50500390565b60006001600160ff1b0381841382841380821686840486111615611a3657611a366119bb565b600160ff1b6000871282811687830589121615611a5557611a556119bb565b60008712925087820587128484161615611a7157611a716119bb565b87850587128184161615611a8757611a876119bb565b505050929093029392505050565b600080821280156001600160ff1b0384900385131615611ab757611ab76119bb565b600160ff1b8390038412811615611ad057611ad06119bb565b50500190565b634e487b7160e01b600052601260045260246000fd5b600082611b0957634e487b7160e01b600052601260045260246000fd5b600160ff1b821460001984141615611b2357611b236119bb565b500590565b6000600160ff1b8201610a8757610a876119bb565b80825b6001808611611b4f5750610434565b6001600160ff1b03829004821115611b6957611b696119bb565b80861615611b7657918102915b9490941c938002611b40565b6000828015611b985760018114611ba257611bab565b600191505061038f565b8291505061038f565b5081611bb95750600061038f565b50600160008213808214611bd2578015611bf157611c0b565b6001600160ff1b03839004831115611bec57611bec6119bb565b611c0b565b6001600160ff1b03839005831215611c0b57611c0b6119bb565b5080831615611c175750805b611c278360011c83840283611b3d565b600082136001600160ff1b0382900483111615611c4657611c466119bb565b60008212600160ff1b82900583121615611c6257611c626119bb565b029392505050565b600061074c60ff841683611b82565b60008219821115611c8c57611c8c6119bb565b50019056fe0000000000c90f8801921d20025b26d703242abf03ed26e604b6195d057f00350647d97c0710a34507d95b9e08a2009a096a90490a3308bc0afb68050bc3ac350c8bd35e0d53db920e1bc2e40ee387660fab272b1072a0481139f0cf120116d512c8106e138edbb1145576b1151bdf8515e2144416a81305176dd9de183366e818f8b83c19bdcbf31a82a0251b4732ef1c0b826a1ccf8cb31d934fe51e56ca1e1f19f97b1fdcdc1b209f701c2161b39f2223a4c522e541af23a6887e2467775725280c5d25e845b626a8218527679df42826b92828e5714a29a3c4852a61b1012b1f34eb2bdc4e6f2c98fbba2d553afb2e110a622ecc681e2f8752623041c76030fbc54d31b54a5d326e54c73326e2c233def2873496824f354d905636041ad936ba2013376f9e46382493b038d8fe93398cdd323a402dd13af2eeb73ba51e293c56ba703d07c1d53db832a53e680b2c3f1749b73fc5ec974073f21d4121589a41ce1e64427a41d04325c13543d09aec447acd50452456bc45cd358f46756827471cece647c3c22e4869e664490f57ee49b415334a581c9d4afb6c974b9e038f4c3fdff34ce100344d8162c34e2106174ebfe8a44f5e08e24ffb654c5097fc5e5133cc9451ced46e5269126e53028517539b2aef5433027d54ca0a4a556040e255f5a4d2568a34a9571deef957b0d2555842dd5458d40e8c5964649759f3de125a8279995b1035ce5b9d11535c290acc5cb420df5d3e52365dc79d7b5e50015d5ed77c895f5e0db25fe3b38d60686cce60ec382f616f146b61f1003e6271fa6862f201ac637114cc63ef328f646c59bf64e889256563bf9165ddfbd266573cbb66cf811f6746c7d767bd0fbc683257aa68a69e806919e31f698c246b69fd614a6a6d98a36adcc9646b4af2786bb812d06c24295f6c8f351b6cf934fb6d6227f96dca0d146e30e3496e96a99c6efb5f116f5f02b16fc1938470231099708378fe70e2cbc571410804719e2cd171fa394872552c8472af05a67307c3cf735f662573b5ebd0740b53fa745f9dd074b2c8837504d3447555bd4b75a585ce75f42c0a7641af3c768e0ea576d9498877235f2c776c4eda77b417df77fab988784033287884841378c7aba17909a92c794a7c11798a23b079c89f6d7a05eeac7a4210d87a7d055a7ab6cba37aef63237b26cb4e7b5d039d7b920b887bc5e28f7bf8882f7c29fbed7c5a3d4f7c894bdd7cb727237ce3ceb17d0f42177d3980eb7d628ac57d8a5f3f7db0fdf77dd6668e7dfa98a77e1d93e97e3f57fe7e5fe4927e7f39567e9d55fb7eba3a387ed5e5c57ef0585f7f0991c37f2191b37f3857f57f4de4507f62368e7f754e7f7f872bf27f97cebc7fa736b37fb563b27fc255957fce0c3d7fd8878d7fe1c76a7fe9cbbf7ff094777ff621817ffa72d07ffd88597fff62157fffffffa2646970667358221220d82774bef22c1644c69316ffee7a7bc561914ffebb93b7fc0fbd02635dc021dc64736f6c634300080f0033",
    "linkReferences": {}
  },
  "methodIdentifiers": {
    "add(int256,int256,int256,int256)": "6271f50e",
    "atan1to1(int256)": "a31f4651",
    "atan2(int256,int256)": "039492b3",
    "complexEXP(int256,int256)": "8d2704e9",
    "complexLN(int256,int256)": "50f17544",
    "complexPOW(int256,int256,int256)": "03b8eb00",
    "complexSQRT(int256,int256)": "d4af132e",
    "div(int256,int256,int256,int256)": "5b7bd4fd",
    "fromPolar(int256,int256)": "3dfcdd0a",
    "mul(int256,int256,int256,int256)": "2b6a2dbe",
    "p_atan2(int256,int256)": "b4ce66db",
    "r2(int256,int256)": "a5bb77e8",
    "sub(int256,int256,int256,int256)": "006d284a",
    "toPolar(int256,int256)": "d2ce9ea2"
  },
  "id": 8
}