{"abi":[{"type":"function","name":"add","inputs":[{"name":"a","type":"tuple","internalType":"struct Num_Complex.Complex","components":[{"name":"re","type":"int256","internalType":"SD59x18"},{"name":"im","type":"int256","internalType":"SD59x18"}]},{"name":"b","type":"tuple","internalType":"struct Num_Complex.Complex","components":[{"name":"re","type":"int256","internalType":"SD59x18"},{"name":"im","type":"int256","internalType":"SD59x18"}]}],"outputs":[{"name":"","type":"tuple","internalType":"struct Num_Complex.Complex","components":[{"name":"re","type":"int256","internalType":"SD59x18"},{"name":"im","type":"int256","internalType":"SD59x18"}]}],"stateMutability":"pure"},{"type":"function","name":"atan1to1","inputs":[{"name":"x","type":"int256","internalType":"int256"}],"outputs":[{"name":"","type":"int256","internalType":"int256"}],"stateMutability":"pure"},{"type":"function","name":"atan2","inputs":[{"name":"y","type":"int256","internalType":"SD59x18"},{"name":"x","type":"int256","internalType":"SD59x18"}],"outputs":[{"name":"T","type":"int256","internalType":"SD59x18"}],"stateMutability":"pure"},{"type":"function","name":"div","inputs":[{"name":"a","type":"tuple","internalType":"struct Num_Complex.Complex","components":[{"name":"re","type":"int256","internalType":"SD59x18"},{"name":"im","type":"int256","internalType":"SD59x18"}]},{"name":"b","type":"tuple","internalType":"struct Num_Complex.Complex","components":[{"name":"re","type":"int256","internalType":"SD59x18"},{"name":"im","type":"int256","internalType":"SD59x18"}]}],"outputs":[{"name":"","type":"tuple","internalType":"struct Num_Complex.Complex","components":[{"name":"re","type":"int256","internalType":"SD59x18"},{"name":"im","type":"int256","internalType":"SD59x18"}]}],"stateMutability":"pure"},{"type":"function","name":"exp","inputs":[{"name":"a","type":"tuple","internalType":"struct Num_Complex.Complex","components":[{"name":"re","type":"int256","internalType":"SD59x18"},{"name":"im","type":"int256","internalType":"SD59x18"}]}],"outputs":[{"name":"","type":"tuple","internalType":"struct Num_Complex.Complex","components":[{"name":"re","type":"int256","internalType":"SD59x18"},{"name":"im","type":"int256","internalType":"SD59x18"}]}],"stateMutability":"pure"},{"type":"function","name":"fromPolar","inputs":[{"name":"r","type":"int256","internalType":"SD59x18"},{"name":"T","type":"int256","internalType":"SD59x18"}],"outputs":[{"name":"a","type":"tuple","internalType":"struct Num_Complex.Complex","components":[{"name":"re","type":"int256","internalType":"SD59x18"},{"name":"im","type":"int256","internalType":"SD59x18"}]}],"stateMutability":"pure"},{"type":"function","name":"ln","inputs":[{"name":"a","type":"tuple","internalType":"struct Num_Complex.Complex","components":[{"name":"re","type":"int256","internalType":"SD59x18"},{"name":"im","type":"int256","internalType":"SD59x18"}]}],"outputs":[{"name":"","type":"tuple","internalType":"struct Num_Complex.Complex","components":[{"name":"re","type":"int256","internalType":"SD59x18"},{"name":"im","type":"int256","internalType":"SD59x18"}]}],"stateMutability":"pure"},{"type":"function","name":"mul","inputs":[{"name":"a","type":"tuple","internalType":"struct Num_Complex.Complex","components":[{"name":"re","type":"int256","internalType":"SD59x18"},{"name":"im","type":"int256","internalType":"SD59x18"}]},{"name":"b","type":"tuple","internalType":"struct Num_Complex.Complex","components":[{"name":"re","type":"int256","internalType":"SD59x18"},{"name":"im","type":"int256","internalType":"SD59x18"}]}],"outputs":[{"name":"","type":"tuple","internalType":"struct Num_Complex.Complex","components":[{"name":"re","type":"int256","internalType":"SD59x18"},{"name":"im","type":"int256","internalType":"SD59x18"}]}],"stateMutability":"pure"},{"type":"function","name":"p_atan2","inputs":[{"name":"y","type":"int256","internalType":"SD59x18"},{"name":"x","type":"int256","internalType":"SD59x18"}],"outputs":[{"name":"T","type":"int256","internalType":"SD59x18"}],"stateMutability":"pure"},{"type":"function","name":"pow","inputs":[{"name":"a","type":"tuple","internalType":"struct Num_Complex.Complex","components":[{"name":"re","type":"int256","internalType":"SD59x18"},{"name":"im","type":"int256","internalType":"SD59x18"}]},{"name":"n","type":"int256","internalType":"SD59x18"}],"outputs":[{"name":"","type":"tuple","internalType":"struct Num_Complex.Complex","components":[{"name":"re","type":"int256","internalType":"SD59x18"},{"name":"im","type":"int256","internalType":"SD59x18"}]}],"stateMutability":"pure"},{"type":"function","name":"r2","inputs":[{"name":"a","type":"int256","internalType":"SD59x18"},{"name":"b","type":"int256","internalType":"SD59x18"}],"outputs":[{"name":"","type":"int256","internalType":"SD59x18"}],"stateMutability":"pure"},{"type":"function","name":"sqrt","inputs":[{"name":"a","type":"tuple","internalType":"struct Num_Complex.Complex","components":[{"name":"re","type":"int256","internalType":"SD59x18"},{"name":"im","type":"int256","internalType":"SD59x18"}]}],"outputs":[{"name":"","type":"tuple","internalType":"struct Num_Complex.Complex","components":[{"name":"re","type":"int256","internalType":"SD59x18"},{"name":"im","type":"int256","internalType":"SD59x18"}]}],"stateMutability":"pure"},{"type":"function","name":"sub","inputs":[{"name":"a","type":"tuple","internalType":"struct Num_Complex.Complex","components":[{"name":"re","type":"int256","internalType":"SD59x18"},{"name":"im","type":"int256","internalType":"SD59x18"}]},{"name":"b","type":"tuple","internalType":"struct Num_Complex.Complex","components":[{"name":"re","type":"int256","internalType":"SD59x18"},{"name":"im","type":"int256","internalType":"SD59x18"}]}],"outputs":[{"name":"","type":"tuple","internalType":"struct Num_Complex.Complex","components":[{"name":"re","type":"int256","internalType":"SD59x18"},{"name":"im","type":"int256","internalType":"SD59x18"}]}],"stateMutability":"pure"},{"type":"function","name":"toPolar","inputs":[{"name":"a","type":"tuple","internalType":"struct Num_Complex.Complex","components":[{"name":"re","type":"int256","internalType":"SD59x18"},{"name":"im","type":"int256","internalType":"SD59x18"}]}],"outputs":[{"name":"","type":"int256","internalType":"SD59x18"},{"name":"","type":"int256","internalType":"SD59x18"}],"stateMutability":"pure"},{"type":"function","name":"unwrap","inputs":[{"name":"a","type":"tuple","internalType":"struct Num_Complex.Complex","components":[{"name":"re","type":"int256","internalType":"SD59x18"},{"name":"im","type":"int256","internalType":"SD59x18"}]}],"outputs":[{"name":"","type":"int256","internalType":"SD59x18"},{"name":"","type":"int256","internalType":"SD59x18"}],"stateMutability":"pure"},{"type":"function","name":"wrap","inputs":[{"name":"re","type":"int256","internalType":"SD59x18"},{"name":"im","type":"int256","internalType":"SD59x18"}],"outputs":[{"name":"","type":"tuple","internalType":"struct Num_Complex.Complex","components":[{"name":"re","type":"int256","internalType":"SD59x18"},{"name":"im","type":"int256","internalType":"SD59x18"}]}],"stateMutability":"pure"},{"type":"error","name":"PRBMath_MulDiv18_Overflow","inputs":[{"name":"x","type":"uint256","internalType":"uint256"},{"name":"y","type":"uint256","internalType":"uint256"}]},{"type":"error","name":"PRBMath_MulDiv_Overflow","inputs":[{"name":"x","type":"uint256","internalType":"uint256"},{"name":"y","type":"uint256","internalType":"uint256"},{"name":"denominator","type":"uint256","internalType":"uint256"}]},{"type":"error","name":"PRBMath_SD59x18_Abs_MinSD59x18","inputs":[]},{"type":"error","name":"PRBMath_SD59x18_Div_InputTooSmall","inputs":[]},{"type":"error","name":"PRBMath_SD59x18_Div_Overflow","inputs":[{"name":"x","type":"int256","internalType":"SD59x18"},{"name":"y","type":"int256","internalType":"SD59x18"}]},{"type":"error","name":"PRBMath_SD59x18_Exp2_InputTooBig","inputs":[{"name":"x","type":"int256","internalType":"SD59x18"}]},{"type":"error","name":"PRBMath_SD59x18_Exp_InputTooBig","inputs":[{"name":"x","type":"int256","internalType":"SD59x18"}]},{"type":"error","name":"PRBMath_SD59x18_Log_InputTooSmall","inputs":[{"name":"x","type":"int256","internalType":"SD59x18"}]},{"type":"error","name":"PRBMath_SD59x18_Mul_InputTooSmall","inputs":[]},{"type":"error","name":"PRBMath_SD59x18_Mul_Overflow","inputs":[{"name":"x","type":"int256","internalType":"SD59x18"},{"name":"y","type":"int256","internalType":"SD59x18"}]},{"type":"error","name":"PRBMath_SD59x18_Sqrt_NegativeInput","inputs":[{"name":"x","type":"int256","internalType":"SD59x18"}]},{"type":"error","name":"PRBMath_SD59x18_Sqrt_Overflow","inputs":[{"name":"x","type":"int256","internalType":"SD59x18"}]}],"bytecode":{"object":"0x608060405234801561001057600080fd5b506122c3806100206000396000f3fe608060405234801561001057600080fd5b50600436106101005760003560e01c8063a5bb77e811610097578063cd92e9af11610066578063cd92e9af14610233578063ec123be814610267578063ee8e60441461027a578063f87f472b1461028d57600080fd5b8063a5bb77e8146101e0578063b4ce66db146101f3578063c9673bf614610206578063ccec6d711461022057600080fd5b80633dfcdd0a116100d35780633dfcdd0a1461019457806364b5c441146101a7578063a18b3b42146101ba578063a31f4651146101cd57600080fd5b8063039492b3146101055780631ed0a7bf1461012b57806321236b9e146101535780632b5f0c2514610181575b600080fd5b610118610113366004611b2e565b6102a0565b6040519081526020015b60405180910390f35b61013e610139366004611bad565b610364565b60408051928352602083019190915201610122565b610166610161366004611bad565b61039d565b60408051825181526020928301519281019290925201610122565b61016661018f366004611bc9565b6103d1565b6101666101a2366004611b2e565b61042c565b6101666101b5366004611bad565b6104c5565b6101666101c8366004611bfe565b610502565b6101186101db366004611c29565b610584565b6101186101ee366004611b2e565b61062f565b610118610201366004611b2e565b610663565b61013e610214366004611bad565b80516020909101519091565b61016661022e366004611bc9565b610713565b610166610241366004611b2e565b604080518082018252600080825260209182015281518083019092529281529182015290565b610166610275366004611bc9565b6107a1565b610166610288366004611bad565b610872565b61016661029b366004611bc9565b6109fb565b6000670ae64b77e88c9285816102bf6729a2241af62c00005b83610a4c565b905060006102cc86610b1e565b9050600085126103115760006102f46102e58784610b5f565b6102ef8885610b6e565b610b7a565b9050610309846103048684610a4c565b610b5f565b94505061033e565b600061032a6103208784610b6e565b6102ef8489610b5f565b905061033a836103048684610a4c565b9450505b600086121561035a5761035084610c27565b935050505061035e565b5050505b92915050565b600080600061037b8460000151856020015161062f565b9050600061039185602001518660000151610663565b91959194509092505050565b60408051808201909152600080825260208201526103ba82610364565b60208401528083526103cb90610c35565b82525090565b6040805180820190915260008082526020820152604080518082019091528251845160009291829161040291610b5f565b815260200161042285602001518760200151610b5f90919063ffffffff16565b9052949350505050565b60408051808201909152600080825260208201526000821315610487576104668361046161045e85610c6c565b610c6c565b90565b610a4c565b815261047d8361046161045e85610c7d565b610c7d565b602082015261035e565b6104a261049d8461046161045e61045987611c58565b610c27565b81526104ba61049d8461046161045e61047887611c58565b602082015292915050565b604080518082019091526000808252602082015260006104e88360000151610d47565b905060006104fa82856020015161042c565b949350505050565b604080518082019091526000808252602082015260008061052285610364565b909250905060006105338386610d9c565b905060006105418684610a4c565b9050600060405180604001604052806105618561046161045e6104598890565b81526020016105768561046161045e87610c7d565b905298975050505050505050565b600080670de0b6b3a7640000806105a28566eb8b7fac9bc000611c74565b6105ac9190611cba565b6105be90670365595a8089c000611cf6565b670de0b6b3a76400006105d18187611d1e565b6105db9087611c74565b6105e59190611cba565b6105ef9190611c74565b6105f99190611cba565b670de0b6b3a764000061061485670ae4e15744ae8000611c74565b61061e9190611cba565b6106289190611d1e565b9392505050565b600061063b8380610a4c565b92506106478280610a4c565b915061062861065e6106598585610b6e565b610b1e565b610e30565b6000670ae64b77e88c9285816106806729a2241af62c00006102b9565b9050600061068d86610b1e565b9050600085126106e55760006106a66102e58784610b5f565b90506103096106df6106cd6702b965cf5968c0005b610461856729a2241af62c0000610d9c565b610304670d9fb2f2e000400085610a4c565b85610b6e565b60006106f46103208784610b6e565b905061033a61070d6106cd6702b965cf5968c0006106bb565b84610b6e565b60408051808201909152600080825260208201528251825160009161073791610a4c565b9050600061074d85602001518560200151610a4c565b9050600061076386602001518660000151610a4c565b9050600061077987600001518760200151610a4c565b9050600060405180604001604052806107928787610b5f565b81526020016105768585610b6e565b60408051808201909152600080825260208201819052835183516107df916107c891610a4c565b6107da86602001518660200151610a4c565b610b6e565b9050600061080a6107f886602001518660000151610a4c565b61030487600001518760200151610a4c565b9050600061083461081c866020015190565b865161082a90600290611e7a565b61045e9190611cf6565b9050600060405180604001604052806108568487610b7a90919063ffffffff16565b81526020016108658585610b7a565b9052979650505050505050565b60408051808201909152600080825260208201526040805180820190915260008082526020820152602083015160000361094d578251600012156108d85760405180604001604052806108c88560000151610e30565b815260200160009052905061035e565b60006108ea61049d8560000151610e30565b905060006108f9856020015190565b1315610921576040518060400160405280610912600090565b81526020018290529150610947565b6040518060400160405280610934600090565b815260200161094283610c27565b905291505b5061035e565b82516000036109c457600061097961065e61096b8660200151610b1e565b671bc16d674ec80000610b7a565b90506000610988856020015190565b13156109aa576040518060400160405280828152602001828152509150610947565b604051806040016040528082815260200161094283610c27565b6000806109d085610364565b915091506109f26109e083610e30565b6101a283671bc16d674ec80000610b7a565b95945050505050565b60408051808201909152600080825260208201526040805180820190915282518451600092918291610a2c91610b6e565b815260200161042285602001518760200151610b6e90919063ffffffff16565b60008282600160ff1b821480610a655750600160ff1b81145b15610a835760405163a6070c2560e01b815260040160405180910390fd5b60008060008412610a945783610a99565b836000035b915060008312610aa95782610aae565b826000035b90506000610abc8383610eb0565b90506001600160ff1b03811115610af55760405163120b5b4360e01b815260048101899052602481018890526044015b60405180910390fd5b60001985851813610b1181610b0d578260000361045e565b8290565b9998505050505050505050565b600081600160ff1b8101610b455760405163ec2b9e6760e01b815260040160405180910390fd5b60008112610b535782610628565b61062861045e82611c58565b600061062861045e8385611d1e565b6000610628828461082a565b60008282600160ff1b821480610b935750600160ff1b81145b15610bb1576040516309fe2b4560e41b815260040160405180910390fd5b60008060008412610bc25783610bc7565b836000035b915060008312610bd75782610bdc565b826000035b90506000610bf383670de0b6b3a764000084610f66565b90506001600160ff1b03811115610af55760405163d49c26b360e01b81526004810189905260248101889052604401610aec565b600061035e61045e83611c58565b600061035e6714057b7ef767814f670de0b6b3a7640000610c5861045e86611039565b610c629190611c74565b61045e9190611cba565b600061035e6715cc96efd11924eb83015b6757325bbf446493ac9081900663400000000204600061ffff600483901c1660ff601484901c16631000000084161563200000008516151581610cc25760ff92909203915b60006040518061044001604052806104048152602001611e8a610404913960046002860102818101519192509063ffffffff602082901c8116908216818103890260101c600088610d1557818303610d19565b8184015b90508715610d25576000035b637fffffff670de0b6b3a76400008202059d9c50505050505050505050505050565b600081680736ea4425c11ac630811315610d775760405163ca7ec0c560e01b815260048101849052602401610aec565b6714057b7ef767814f81026104fa610d97670de0b6b3a7640000835b0590565b6111ac565b60008282818303610dc7578015610db4576000610dbe565b670de0b6b3a76400005b9250505061035e565b670de0b6b3a76400008203610de857670de0b6b3a76400009250505061035e565b80600003610e0257670de0b6b3a76400009250505061035e565b670de0b6b3a76400008103610e1b57849250505061035e565b6109f2610d97610e2a87611039565b86610a4c565b60008181811215610e575760405163b9b0f49b60e01b815260048101849052602401610aec565b610e70670de0b6b3a76400006001600160ff1b03611cba565b811315610e935760405163063103bf60e01b815260048101849052602401610aec565b6000610ea8670de0b6b3a76400008302611256565b9050806104fa565b6000808060001984860984860292508281108382030391505080600003610ee45750670de0b6b3a76400009004905061035e565b670de0b6b3a76400008110610f1657604051635173648d60e01b81526004810186905260248101859052604401610aec565b6000670de0b6b3a764000085870962040000818503049310909103600160ee1b02919091177faccb18165bd6fe31ae1cf318dc5b51eee0e1ba569b88cd74c1773b91fac106690291505092915050565b6000808060001985870985870292508281108382030391505080600003610fa057838281610f9657610f96611ca4565b0492505050610628565b838110610fd157604051630c740aef60e31b8152600481018790526024810186905260448101859052606401610aec565b600084868809600260036001881981018916988990049182028318808302840302808302840302808302840302808302840302808302840302918202909203026000889003889004909101858311909403939093029303949094049190911702949350505050565b60008181811361105f5760405163059b101b60e01b815260048101849052602401610aec565b6000670de0b6b3a764000082126110785750600161109e565b50600019816ec097ce7bc90715b34b9f10000000008161109a5761109a611ca4565b0591505b600061112a670de0b6b3a7640000840560016fffffffffffffffffffffffffffffffff821160071b91821c67ffffffffffffffff811160061b90811c63ffffffff811160051b90811c61ffff811160041b90811c60ff8111600390811b91821c600f811160021b90811c918211871b91821c969096119490961792909217171791909117919091171790565b9050670de0b6b3a7640000810283821d670de0b6b3a763ffff198101611157575091909102949350505050565b671bc16d674ec800006706f05b59d3b200005b600081131561119d57670de0b6b3a7640000838002059250818312611195579283019260019290921d915b60011d61116a565b50505091909102949350505050565b600081818112156112095768033dd1780914b97114198112156111d25750600092915050565b6112026111e561045e610d978460000390565b6ec097ce7bc90715b34b9f100000000081610d9357610d93611ca4565b9150611250565b680a688906bd8affffff81131561123557604051626c1a0560e31b815260048101849052602401610aec565b670de0b6b3a7640000604082901b056104fa61045e826113ce565b50919050565b60008160000361126857506000919050565b50600181600160801b81106112825760409190911b9060801c5b68010000000000000000811061129d5760209190911b9060401c5b64010000000081106112b45760109190911b9060201c5b6201000081106112c95760089190911b9060101c5b61010081106112dd5760049190911b9060081c5b601081106112f05760029190911b9060041c5b6004811061130057600182901b91505b600182848161131157611311611ca4565b048301901c9150600182848161132957611329611ca4565b048301901c9150600182848161134157611341611ca4565b048301901c9150600182848161135957611359611ca4565b048301901c9150600182848161137157611371611ca4565b048301901c9150600182848161138957611389611ca4565b048301901c915060018284816113a1576113a1611ca4565b048301901c915060008284816113b9576113b9611ca4565b0490508083106113c7578092505b5050919050565b600160bf1b67ff000000000000008216156114db576780000000000000008216156114025768016a09e667f3bcc9090260401c5b674000000000000000821615611421576801306fe0a31b7152df0260401c5b672000000000000000821615611440576801172b83c7d517adce0260401c5b67100000000000000082161561145f5768010b5586cf9890f62a0260401c5b67080000000000000082161561147e576801059b0d31585743ae0260401c5b67040000000000000082161561149d57680102c9a3e778060ee70260401c5b6702000000000000008216156114bc5768010163da9fb33356d80260401c5b6701000000000000008216156114db57680100b1afa5abcbed610260401c5b66ff0000000000008216156115da5766800000000000008216156115085768010058c86da1c09ea20260401c5b6640000000000000821615611526576801002c605e2e8cec500260401c5b662000000000000082161561154457680100162f3904051fa10260401c5b6610000000000000821615611562576801000b175effdc76ba0260401c5b660800000000000082161561158057680100058ba01fb9f96d0260401c5b660400000000000082161561159e5768010002c5cc37da94920260401c5b66020000000000008216156115bc576801000162e525ee05470260401c5b66010000000000008216156115da5768010000b17255775c040260401c5b65ff00000000008216156116d05765800000000000821615611605576801000058b91b5bc9ae0260401c5b6540000000000082161561162257680100002c5c89d5ec6d0260401c5b6520000000000082161561163f5768010000162e43f4f8310260401c5b6510000000000082161561165c57680100000b1721bcfc9a0260401c5b650800000000008216156116795768010000058b90cf1e6e0260401c5b65040000000000821615611696576801000002c5c863b73f0260401c5b650200000000008216156116b357680100000162e430e5a20260401c5b650100000000008216156116d0576801000000b1721835510260401c5b64ff000000008216156117bd576480000000008216156116f957680100000058b90c0b490260401c5b6440000000008216156117155768010000002c5c8601cc0260401c5b642000000000821615611731576801000000162e42fff00260401c5b64100000000082161561174d5768010000000b17217fbb0260401c5b640800000000821615611769576801000000058b90bfce0260401c5b64040000000082161561178557680100000002c5c85fe30260401c5b6402000000008216156117a15768010000000162e42ff10260401c5b6401000000008216156117bd57680100000000b17217f80260401c5b63ff0000008216156118a15763800000008216156117e45768010000000058b90bfc0260401c5b63400000008216156117ff576801000000002c5c85fe0260401c5b632000000082161561181a57680100000000162e42ff0260401c5b6310000000821615611835576801000000000b17217f0260401c5b630800000082161561185057680100000000058b90c00260401c5b630400000082161561186b5768010000000002c5c8600260401c5b6302000000821615611886576801000000000162e4300260401c5b63010000008216156118a15768010000000000b172180260401c5b62ff000082161561197c57628000008216156118c6576801000000000058b90c0260401c5b624000008216156118e057680100000000002c5c860260401c5b622000008216156118fa5768010000000000162e430260401c5b6210000082161561191457680100000000000b17210260401c5b6208000082161561192e5768010000000000058b910260401c5b62040000821615611948576801000000000002c5c80260401c5b6202000082161561196257680100000000000162e40260401c5b6201000082161561197c576801000000000000b1720260401c5b61ff00821615611a4e5761800082161561199f57680100000000000058b90260401c5b6140008216156119b85768010000000000002c5d0260401c5b6120008216156119d1576801000000000000162e0260401c5b6110008216156119ea5768010000000000000b170260401c5b610800821615611a03576801000000000000058c0260401c5b610400821615611a1c57680100000000000002c60260401c5b610200821615611a3557680100000000000001630260401c5b610100821615611a4e57680100000000000000b10260401c5b60ff821615611b17576080821615611a6f57680100000000000000590260401c5b6040821615611a87576801000000000000002c0260401c5b6020821615611a9f57680100000000000000160260401c5b6010821615611ab7576801000000000000000b0260401c5b6008821615611acf57680100000000000000060260401c5b6004821615611ae757680100000000000000030260401c5b6002821615611aff57680100000000000000010260401c5b6001821615611b1757680100000000000000010260401c5b670de0b6b3a76400000260409190911c60bf031c90565b60008060408385031215611b4157600080fd5b50508035926020909101359150565b600060408284031215611b6257600080fd5b6040516040810181811067ffffffffffffffff82111715611b9357634e487b7160e01b600052604160045260246000fd5b604052823581526020928301359281019290925250919050565b600060408284031215611bbf57600080fd5b6106288383611b50565b60008060808385031215611bdc57600080fd5b611be68484611b50565b9150611bf58460408501611b50565b90509250929050565b60008060608385031215611c1157600080fd5b611c1b8484611b50565b946040939093013593505050565b600060208284031215611c3b57600080fd5b5035919050565b634e487b7160e01b600052601160045260246000fd5b6000600160ff1b8201611c6d57611c6d611c42565b5060000390565b80820260008212600160ff1b84141615611c9057611c90611c42565b818105831482151761035e5761035e611c42565b634e487b7160e01b600052601260045260246000fd5b600082611cd757634e487b7160e01b600052601260045260246000fd5b600160ff1b821460001984141615611cf157611cf1611c42565b500590565b8082018281126000831280158216821582161715611d1657611d16611c42565b505092915050565b8181036000831280158383131683831282161715611d3e57611d3e611c42565b5092915050565b80825b6001808611611d575750611d8a565b6001600160ff1b03829004821115611d7157611d71611c42565b80861615611d7e57918102915b9490941c938002611d48565b935093915050565b6000828015611da85760018114611db257611dbb565b600191505061035e565b8291505061035e565b5081611dc95750600061035e565b50600160008213808214611de2578015611e0157611e1b565b6001600160ff1b03839004831115611dfc57611dfc611c42565b611e1b565b6001600160ff1b03839005831215611e1b57611e1b611c42565b5080831615611e275750805b611e378360011c83840283611d45565b600082136001600160ff1b0382900483111615611e5657611e56611c42565b60008212600160ff1b82900583121615611e7257611e72611c42565b029392505050565b600061062860ff841683611d9256fe0000000000c90f8801921d20025b26d703242abf03ed26e604b6195d057f00350647d97c0710a34507d95b9e08a2009a096a90490a3308bc0afb68050bc3ac350c8bd35e0d53db920e1bc2e40ee387660fab272b1072a0481139f0cf120116d512c8106e138edbb1145576b1151bdf8515e2144416a81305176dd9de183366e818f8b83c19bdcbf31a82a0251b4732ef1c0b826a1ccf8cb31d934fe51e56ca1e1f19f97b1fdcdc1b209f701c2161b39f2223a4c522e541af23a6887e2467775725280c5d25e845b626a8218527679df42826b92828e5714a29a3c4852a61b1012b1f34eb2bdc4e6f2c98fbba2d553afb2e110a622ecc681e2f8752623041c76030fbc54d31b54a5d326e54c73326e2c233def2873496824f354d905636041ad936ba2013376f9e46382493b038d8fe93398cdd323a402dd13af2eeb73ba51e293c56ba703d07c1d53db832a53e680b2c3f1749b73fc5ec974073f21d4121589a41ce1e64427a41d04325c13543d09aec447acd50452456bc45cd358f46756827471cece647c3c22e4869e664490f57ee49b415334a581c9d4afb6c974b9e038f4c3fdff34ce100344d8162c34e2106174ebfe8a44f5e08e24ffb654c5097fc5e5133cc9451ced46e5269126e53028517539b2aef5433027d54ca0a4a556040e255f5a4d2568a34a9571deef957b0d2555842dd5458d40e8c5964649759f3de125a8279995b1035ce5b9d11535c290acc5cb420df5d3e52365dc79d7b5e50015d5ed77c895f5e0db25fe3b38d60686cce60ec382f616f146b61f1003e6271fa6862f201ac637114cc63ef328f646c59bf64e889256563bf9165ddfbd266573cbb66cf811f6746c7d767bd0fbc683257aa68a69e806919e31f698c246b69fd614a6a6d98a36adcc9646b4af2786bb812d06c24295f6c8f351b6cf934fb6d6227f96dca0d146e30e3496e96a99c6efb5f116f5f02b16fc1938470231099708378fe70e2cbc571410804719e2cd171fa394872552c8472af05a67307c3cf735f662573b5ebd0740b53fa745f9dd074b2c8837504d3447555bd4b75a585ce75f42c0a7641af3c768e0ea576d9498877235f2c776c4eda77b417df77fab988784033287884841378c7aba17909a92c794a7c11798a23b079c89f6d7a05eeac7a4210d87a7d055a7ab6cba37aef63237b26cb4e7b5d039d7b920b887bc5e28f7bf8882f7c29fbed7c5a3d4f7c894bdd7cb727237ce3ceb17d0f42177d3980eb7d628ac57d8a5f3f7db0fdf77dd6668e7dfa98a77e1d93e97e3f57fe7e5fe4927e7f39567e9d55fb7eba3a387ed5e5c57ef0585f7f0991c37f2191b37f3857f57f4de4507f62368e7f754e7f7f872bf27f97cebc7fa736b37fb563b27fc255957fce0c3d7fd8878d7fe1c76a7fe9cbbf7ff094777ff621817ffa72d07ffd88597fff62157fffffffa2646970667358221220dd0a778f587dd51000af68a09680d0df57e01f706a207fdc6340bd4a314d1bad64736f6c63430008180033","linkReferences":{}},"methodIdentifiers":{"add((int256,int256),(int256,int256))":"f87f472b","atan1to1(int256)":"a31f4651","atan2(int256,int256)":"039492b3","div((int256,int256),(int256,int256))":"ec123be8","exp((int256,int256))":"64b5c441","fromPolar(int256,int256)":"3dfcdd0a","ln((int256,int256))":"21236b9e","mul((int256,int256),(int256,int256))":"ccec6d71","p_atan2(int256,int256)":"b4ce66db","pow((int256,int256),int256)":"a18b3b42","r2(int256,int256)":"a5bb77e8","sqrt((int256,int256))":"ee8e6044","sub((int256,int256),(int256,int256))":"2b5f0c25","toPolar((int256,int256))":"1ed0a7bf","unwrap((int256,int256))":"c9673bf6","wrap(int256,int256)":"cd92e9af"},"id":43}